:020000040800F2
:10000000D0070020510200081B1B0008731A0008CB
:10001000191B000821100008B11D00080000000095
:10002000000000000000000000000000871B000826
:100030002310000800000000851B0008891B000831
:100040006B0200086B0200086B0200086B020008DC
:100050006B0200086B0200086B0200086B020008CC
:100060006B0200086B0200086B0200086B020008BC
:100070006B0200086B0200086B0200086B020008AC
:100080006B0200086B0200086B0200080000000011
:100090000000000000000000000000006B020008EB
:1000A0006B0200086B0200086B0200086B0200087C
:1000B0006B0200086B0200086B0200086B0200086C
:1000C0006B0200086B0200086B0200086B0200085C
:1000D0006B0200086B0200086B02000800000000C1
:1000E0006B0200086B0200086B02000800000000B1
:1000F0000000000000000000000000006B0200088B
:10010000000000006B0200086B0200086B02000890
:1001100000000000000000000000000000000000DF
:100120006B0200086B0200086B0200086B020008FB
:100130006B0200080000000000000000000000004A
:100140000000000000000000000000006B0200083A
:100150006B0200086B0200086B0200086B020008CB
:100160006B0200086B0200080000000000000000A5
:10017000000000000000000000000000000000007F
:10018000000000006B0200080000000000000000FA
:100190006B0200086B02000800F002F800F049F85A
:1001A0000AA090E8000C82448344AAF10107DA45D2
:1001B00001D100F03EF8AFF2090EBAE80F0013F0DB
:1001C000010F18BFFB1A43F001031847501D000030
:1001D000701D0000103A24BF78C878C1FAD85207C1
:1001E00024BF30C830C144BF04680C6070470000B1
:1001F0000023002400250026103A28BF78C1FBD830
:10020000520728BF30C148BF0B607047782900F003
:10021000EB80002070471FB501F028FE9DE8030029
:1002200000F052FC00F044FA1FBD10B500F0A9FA2E
:1002300010BD00F00CFB1146FFF7EDFF01F0DCFDF7
:1002400000F010FC03B4FFF7F0FF03BC00F0CEFD9C
:100250000948804709480047FEE7FEE7FEE7FEE75A
:10026000FEE7FEE7FEE7FEE7FEE7FEE70448054996
:10027000054A064B704700001D1C00089901000844
:10028000D0010020D0070020D0030020D0030020A0
:1002900053EA020C00F069802DE9F04B4FF00006A4
:1002A000002B1FBFB3FA83F503FA05F424FA05F611
:1002B0005E4012BF1643B2FA82F502FA05F4C5F1A8
:1002C00020051EBF22FA05FC44EA0C04203556EA3C
:1002D000044C4FEA144418BF641C4FF000084FF060
:1002E0000009904271EB030C39D3002919BFB1FA10
:1002F00081F701FA07F6B0FA80F700FA07F6C7F1BE
:1003000020071EBF20FA07FC46EA0C062037B6FB82
:10031000F4FCA7EB0507103F07F01F0BCBF12006FD
:100320000CFA0BFB2CFA06F644BFB3460026202F2E
:10033000A4BF5E464FF0000B5BEA060C08BF4FF00F
:10034000010B19EB0B09ABFB027C48EB0608C01B49
:1003500006FB02CC0BFB03CC71EB0C01C1E70B4697
:10036000024641464846BDE8F08B13B54FF0000009
:100370004FF00001AFF30080BDE81C407047000063
:100380000FB4044910B503AA029800F063F910BC39
:100390005DF814FBC800002070B50446856900684C
:1003A000C10601D5302600E02026C00707D070BD69
:1003B000D4E9012130469047206A401C20626D1E1E
:1003C000F6D570BD70B5044685690078C00707D1C1
:1003D00070BDD4E9012120209047206A401C206292
:1003E0006D1EF6D570BD000070B504460D46214661
:1003F0001068AFF300802188090502D50F4A7A44BE
:1004000002E00E4A7A440E32002104F1240305E092
:1004100000F00F060009965D5E54491C0028F7D1D4
:1004200020780023000704D5702D02D009B10223E3
:1004300011322046BDE8704000F0B3B8951A0000B4
:100440002DE9F0474FF0000A89460446C0F820A085
:100450002046E1688847002876D0252806D0D4E9D0
:1004600001219047206A401C2062F1E7E1682046A4
:1004700000258847C4F81CA006460027C4F818A029
:100480002A2E09D0304601F0A4FC38B304EB8708CB
:10049000303EC8F8186019E059F8041B204604EBF8
:1004A00087029161E1688847012F064618D1E0690B
:1004B000002820DA25F020051DE0D8F8180000EB10
:1004C000800006EB40003038C8F818002046E1688C
:1004D0008847064601F07DFC0028EED1012F0AD0A6
:1004E0002E2E08D12046E16888477F1C0646022F41
:1004F00045F02005C4DBA069002803DA404245F03E
:100500000105A061E80701D025F01005B6B1A6F1FC
:100510004100192802D8203645F400654A46314684
:10052000204625604D46FFF771FE58B1012806D0E0
:10053000ED1D25F0070000F1080989E704E005F149
:10054000040985E730468AE7206ABDE8F0874FF066
:10055000000200B5134694469646203922BFA0E813
:100560000C50A0E80C50B1F12001BFF4F7AF09071F
:1005700028BFA0E80C5048BF0CC05DF804EB890010
:1005800028BF40F8042B08BF704748BF20F8022B53
:1005900011F0804F18BF00F8012B7047704770476B
:1005A00070472DE9F0470D4699469246044600F102
:1005B00024080168880604D5E06921F01001216053
:1005C00000E00120A84201DD471B00E00027A169EF
:1005D0007A1902EB0900081AA0612078C00602D43B
:1005E0002046FFF7D9FE002608E0D4E901211AF8D9
:1005F00006009047206A401C761C20624E45F4DBC2
:100600002078C0060AD52046FFF7C6FE06E0D4E9EA
:10061000012130209047206A401C2062381EA7F13B
:100620000107F4DC07E0D4E9012118F80500904740
:10063000206A401C2062281EA5F10105F3DC20463B
:10064000FFF7C0FE2078000602D50220BDE8F08743
:100650000120FBE7074B70B50D467B4400F011F815
:100660000446284600F020F810B14FF0FF3070BD6E
:10067000204670BD8317000001694A1C026108789A
:10068000704700B58FB0CDE90131002105910549D2
:100690007944CDE9031011466846FFF7D1FE0FB04B
:1006A00000BD0000E5FFFFFF007B00F08000704709
:1006B00010B542485421FFF74AFF41485421FFF743
:1006C00046FF40485421FFF742FF3F493B483C4A20
:1006D0003F4B08603D490A603A491960531C036565
:1006E000481C1065012008653B48344A39A178440C
:1006F00000F01CF920B9384878440A3800F0BBF9FA
:1007000037482F4A35A1784400F010F920B9344811
:1007100078440A3800F0AFF932482A4A2FA17844C9
:1007200000F004F920B92F4878440A3800F0A3F902
:1007300040232248DC000021224600F0D4F820B1FA
:1007400025487844543800F096F91D482246402345
:10075000002100F0C8F820B121487844543800F056
:100760008AF9184822461023002100F0BCF800281E
:1007700006D01C487844BDE81040563800F07BB9DC
:1007800010BD104870B5006D20F001040B4800F05A
:1007900043F90B4800F040F90A4800F03DF909E040
:1007A000206D20F00105204600F036F9204600F0CB
:1007B00073F82C46002CF3D170BD000074000020AB
:1007C000C80000201C010020180000201C00002090
:1007D0002000002072000000CD170000770000000C
:1007E000B9170000A51700000EB5CDE9000100F013
:1007F000DDFA029069460120ABBE0EBD08B5694620
:1008000000900220ABBE08BD1FB58DE80700694609
:100810000520ABBE04B010BD1FB58DE80F006946C2
:100820000620ABBEF6E708B5694600900920ABBECE
:1008300008BD1CB5CDE9000169460A20ABBE1CBD50
:10084000704708B5694600900C20ABBE08BD7546E0
:1008500000F018F9AE4605006946534620F007003F
:10086000854618B020B5FFF701FDBDE820404FF0E8
:1008700000064FF000074FF000084FF0000B21F08A
:100880000701AC46ACE8C009ACE8C009ACE8C00957
:10089000ACE8C0098D46704770B50446051F00F0EE
:1008A000F7F80068002C14BF446870BD002C18BF16
:1008B000AC423CBF20466468F8D301680A18AA42DB
:1008C00018BF456003D12A680546114401602868B5
:1008D0004119A1421CBF6C6070BD616869602168EC
:1008E0000844286070BD70B5C468A50713D06502C0
:1008F00011D4B2F5807F09D0B2F5007F06D0B2F5F1
:10090000806F08D1012300F1240106E05D1E6FF025
:100910007F46B54201D3012070BD0161C3614160D2
:1009200024F470611143C160002070BD2DE9F041D5
:100930000C4607461646104600F06EF82078611CFB
:1009400061280AD0722802D077283CD102E0012524
:10095000002405E00225042402E0082448F20205F0
:1009600011F8010B2B2806D0622809D011F8010CD0
:1009700074280AD00BE045F0030544F00204EFE7C9
:1009800045F0040544F00104EAE744F01004384659
:100990002146FFF729FF411C15D00021316171600C
:1009A0004FF40071F560F1617061200704D53046A5
:1009B0000222002100F0E6F8306D40F001003065C1
:1009C0003046BDE8F0810020FBE72DE9F0410D46FF
:1009D0000646104C206DC10704D0410804D020F019
:1009E0000104F7E722460EE0542000F09CF80700CF
:1009F0000ED0206D47F00101084354212065384690
:100A0000FFF7A5FD3A4629463046BDE8F0418DE79F
:100A10000020D6E7740000202DE9F04704464FF08F
:100A200000094FF0FF37C568D4E90486A80707D04E
:100A3000204600F057F93046FFF7E0FE002802DAC2
:100A40003846BDE8F087280502D54046FFF724FF69
:100A50004C212046FFF77BFD206D20F00100206532
:100A60004846EEE710B50446AFF300802046BDE8E7
:100A70001040FFF7E7BB10B500F07EF9BDE810406D
:100A800000F074B900487047700100207047000002
:100A900000487047780100207047704770477047E2
:100AA00038B504460A4600206946AFF300800028A6
:100AB00008BF38BD02460099204600F0A4F9012085
:100AC00038BD012000F0F3B9F8B5AFF3008005465A
:100AD00000200C46102000BF0646A819A0420DD9E0
:100AE000324669460020AFF30080070008BF00F0DF
:100AF000DEF90098A04218BF0546C419FFF7C8FFE9
:100B000005600746F01D20F007004619284600F052
:100B100073F9B44208BFF8BDA21B31463868BDE87E
:100B2000F84000F070B970B50646FFF7B1FF0568F0
:100B300006F10B0020F00704B4429CBF002070BDFA
:100B40002B466A68BAB11068A04210D304F10801BC
:100B500088423CBF5068586007D351681019416003
:100B60001168091B016058601460101D70BD1346A8
:100B70005268002AE7D121462846FFF791FF002856
:100B8000DED170BD2DE9F041044616460D46476999
:100B9000007B80072ED03846FFF745FE50BB3EB3A2
:100BA000012E02D0022E25D104E0204600F045F9A6
:100BB00005441DE03846FFF744FEE168002841F097
:100BC0001001E16005DA204600F058F80120BDE888
:100BD000F081C9030BD56268E16A914200D81146E1
:100BE000A26911442269891A814200DD0846054440
:100BF000002D01DA0220EAE7E16A6068E2688142DA
:100C000006D29103E06203D522F4003141F01002D4
:100C1000A6690027AE4213DCE16A814201D90B4686
:100C200000E0034603EB060C2369ACEB030CAC4578
:100C300006DD814201D98C4600E084469C4505D101
:100C4000A760276042F02000A5620DE0AD1BE669B9
:100C5000AE1B8142A66000D90846C01A281A20603F
:100C60005819606022F0200003490840E06000202D
:100C700084F84870ABE70000BFCFD7FFC16821F40C
:100C8000001141F08001C160002181600160704766
:100C90002DE9F047814614460E464FF0FF383248A2
:100CA000D5685769054209D03846A169FFF7C1FDEB
:100CB000002811DB2C48C0430540E5602B46324636
:100CC00049463846FFF7A0FDA16920F00042B21A5C
:100CD00011440028A16103D02046FFF7CFFF404612
:100CE000BDE8F08770B504460569C06A616888424E
:100CF00000D80846E16821F42011E160C90312D54B
:100D0000A84208D02246411B2846FFF7C1FF10B178
:100D10004FF0FF3070BD0020E562C4E90150E0688B
:100D200020F48030E060002070BD10B50446C0683B
:100D300020F02000E060A16AA06988420DD0204622
:100D4000FFF7D0FFE06820F4405040F01000E06072
:100D5000A06AA0612069E062606044F24001E0683E
:100D60008843E06010BD000010000200002801D0A0
:100D700000F03CB87047000010B5014602A000F03A
:100D80007DF8012010BD000053494752545245449C
:100D90003A2052656469726563743A2063616E2714
:100DA00074206F70656E3A200000000010B5431C7F
:100DB00002E010F8011B71B18107FAD14FF0013246
:100DC00002C88C1A8C4314EAC211F9D0C01A0A0660
:100DD00003D0C01E10BDC01A10BD0A0401D0801E71
:100DE00010BD0902FCD0401E10BD000001491820B2
:100DF000ABBEFEE72600020000210160C0E9011041
:100E0000704710207047034640688C46002818BF82
:100E100088423CBF03464068F8D3186818448842AB
:100E200007D00CF1030020F00700001D411A521AF0
:100E30000146081D0A60FFF72FBD10B50146C268C4
:100E4000900703D0900607D5886A0AE000F03EF8C4
:100E500001210160881E10BD8B69486818440B6928
:100E6000C01A91F848301BB191F84910401A10BDD2
:100E70001103FCD50028FADD401E10BD70B50546F3
:100E80000C460A2000E06D1C00F018F835B12878F7
:100E90000028F8D102E0641C00F010F814B12078AA
:100EA0000028F8D1BDE870400A2000F007B810B55E
:100EB00000F010F8BDE81040FFF758BF08B56946CC
:100EC0008DF800000320ABBE08BD0000004870474D
:100ED0007001002010B5012805D0002103A0FFF704
:100EE000CDFF012010BD09A1F8E70000534947528A
:100EF000544D454D3A204F7574206F6620686561EA
:100F000070206D656D6F7279000000003A204865B1
:100F10006170206D656D6F727920636F727275708C
:100F200074656400042000F0C3BC6421B0FBF1F2DE
:100F300070B5D4B2B0FBF1F201FB120504E06420FD
:100F400000F070F8641EE4B2002CF8D1002D04D03B
:100F50002846BDE8704000F065B870BD6421484384
:100F60004FF0E021486100228A61086940F00100E9
:100F700008610869C30701D0C003FAD5086920F0E9
:100F8000010008618A61704710B5094C01224021B7
:100F9000204600F056F901228021204600F051F948
:100FA00020460122BDE81040202100F04AB900008F
:100FB000000002402DE9F041DFF85880054600228C
:100FC0004021404600F03DF9134F144C0026B85D17
:100FD00000F0A4FDA0551020FFF7C0FF761CF6B26C
:100FE000092EF4D301224021404600F02AF960780E
:100FF0002870E078C04368702079C043A870607999
:10100000E870A0792871E0796871207AA871BDE84C
:10101000F081000000000240761E0008240000203D
:10102000FEE770470A4948434FF0E021486100223B
:101030008A61086940F0010008610869C30701D0AE
:10104000C003FAD5086920F0010008618A61704781
:10105000A086010072B6FEE72DE9F84FDFF8B8A1CF
:101060000022012403254FF00F090AF1040BAAF115
:10107000040E00BF0B6804FA02F63340B34273D18A
:101080000F7907F00307012F01D0022F16D18768CF
:101090004FEA420805FA08FC27EA0C07D1F80CC011
:1010A0000CFA08FC4CEA070CC0F808C04768B743C4
:1010B0000E79C6F3001696403E4346600E79F6431D
:1010C000B6070DD0C768560005FA06FC27EA0C07DC
:1010D000D1F808C00CFA06FC4CEA070CC0F80CC0AA
:1010E0000E7906F00306022E10D1D60800EB860812
:1010F000D8F8206057074FEAD76C09FA0CF7BE43BF
:101100000F6907FA0CF73743C8F8207006684FEAF2
:10111000420C05FA0CF7BE430F7907F0030707FAF4
:101120000CF7374307604E6816F4403F6DD03B4ED6
:10113000376847F480473760366822F0030706F4C3
:1011400080460096364E07EB060CDCF808689707D9
:101150003F0F09FA07F826EA0806DFF8C88040457D
:1011600003D14FF000081EE04FE0DFF8BC8040459F
:1011700002D14FF0010816E0DFF8B080404502D1FF
:101180004FF002080FE0DFF8A880404502D14FF091
:10119000030808E0DFF89C80404502D14FF00408C6
:1011A00001E04FF0070808FA07F848EA0608CCF80B
:1011B0000888DAF800605746D1F804C09E435FEA19
:1011C000CC2C00D51E433E60DBF800605F46D1F8B2
:1011D00004C09E435FEA8C2C00D51E433E60DEF8BF
:1011E00000607746D1F804C09E435FEA8C3C00D58E
:1011F0001E433E60084F083F3E68D1F804C09E433E
:101200005FEACC3C00D51E433E60521C102AFFF41E
:1012100031AFBDE8F88F0000083C0140443802407F
:10122000003001400000024000040240000802407B
:10123000000C0240001002400069084000D001206C
:1012400070470AB1816170470904FBE70148806873
:1012500070470000080000200248816802781144AD
:1012600081607047080000200B4810B5016841F408
:1012700000710160016841F480610160016841F41E
:1012800080710160032000F061F80F2000F006F883
:1012900000F024F8002010BD003C024070B50D4D58
:1012A00004464FF47A712878B1FBF0F00A490968D6
:1012B000B1FBF0F000F008FB48B9102C07D2002277
:1012C0002146501E00F022F800206C6070BD012005
:1012D00070BD000008000020140000200A4808B576
:1012E000016841F480410160006800F48040009092
:1012F0000548001F016841F080510160006800F05E
:101300008050009008BD000044380240F0B40E4BFD
:101310001B680C46C3F30223C3F10705042D00D953
:101320000425191D072901D2002300E0DB1E012638
:1013300006FA05F1491E214099409E40761E16404E
:101340003143F0BC00F035BD0CED00E0064900F083
:10135000070208684FF6FF03184040EA0220034ADC
:1013600010430860704700000CED00E00000FA0533
:101370002DE9F0470E46050065D0DFF81481D8F856
:101380000000F7B200F00700B04207D288F8007002
:10139000D8F8000000F00700B04254D128683D4C56
:1013A000810712D5400703D5206840F4E050206043
:1013B0002878000703D5206840F46040206020684A
:1013C000A96820F0F000084320602878C0072DD0DD
:1013D000304968680839012812D0022813D0032840
:1013E00011D00968890700292DDA216821F003014D
:1013F00001432160FFF72AFF814641F2883A0EE05F
:1014000009688903EFE709688901ECE7FFF71EFF28
:10141000A0EB0901514502D90320BDE8F0872068FF
:10142000696800F00C00B0EB810FEFD1D8F8001024
:10143000404601F00701B14207D90770006800F08B
:101440000700B04201D00120E7E72878400705D522
:101450002068E96820F4E0500843206028780007FD
:1014600006D52068296920F4604040EAC100206068
:1014700000F038F82168084AC1F30311515CC840F4
:101480000649086006480068FFF708FF0020C4E727
:10149000003C0240083802407F1E00081400002073
:1014A0000C0000200448054900680968044AC1F39B
:1014B0008221515CC8407047140000200838024067
:1014C0008F1E00080448054900680968044AC1F3F2
:1014D0004231515CC8407047140000200838024077
:1014E0008F1E0008154810B5006810F00C02144853
:1014F00013D04110042A0FD0082A0ED10F4C241FFC
:101500002268236802F03F025B0207D52068C0F31F
:101510008810A0FB010106E0084610BD2168C1F358
:101520008811A1FB00010023FEF7B2FE2168C1F380
:101530000141491C4900B0FBF1F010BD08380240E0
:101540000024F4002DE9F84F04006ED02078DFF875
:101550004C93C007A9F104054AD009F104000168C1
:10156000C1F38101012908D00068C0F3810002287D
:101570000AD1D9F80000400206D52868800337D583
:1015800060680028E1D033E06068B0F5803F10D09B
:10159000B0F5A02F286810D020F48030286028688B
:1015A00020F4802028606068A8B1FFF74FFE06464F
:1015B0000DE0286840F48030F4E740F48020286093
:1015C000F7E700BFFFF742FE801B642873D8286846
:1015D0008003F7D50CE0FFF739FE064605E000BFB3
:1015E000FFF734FE801B6428F0D828688003F7D406
:1015F0002078DFF8AC8280074FF0000A3ED5A7487C
:10160000001D016811F00C0F08D00068C0F38100C4
:1016100002280BD1D9F80000400207D428688007BF
:1016200016D5E068012800D112E033E1E068B8B1D6
:101630000120C8F80000FFF709FE064605E000BFDC
:10164000FFF704FE801B0228C0D828688007F7D562
:101650002868216920F0F80040EAC10028600DE008
:10166000C8F800A0FFF7F2FD064604E0FFF7EEFD24
:10167000801B02281FD828688007F7D4207800072D
:1016800022D5864F87486169703771B101210160A9
:10169000FFF7DCFD064604E0FFF7D8FD801B0228BB
:1016A00009D838688007F7D50EE0C0F800A0FFF72A
:1016B000CDFD064605E082E0FFF7C8FD801B02284D
:1016C0007DD838688007F7D42078400768D5DFF8E0
:1016D000CCB100270BF13C0BDBF80000C0000BD4B1
:1016E000DBF8001041F08051CBF80010DBF800006F
:1016F000012700F0805000906B4E3068C00510D478
:10170000306840F480703060FFF7A0FD009005E085
:10171000FFF79CFD0099401A022850D83068C00598
:10172000F6D55E4EA0686C3601280FD005283068CB
:1017300010D020F001003060306820F004003060EC
:10174000A068B8B1FFF782FD00900FE0306840F06C
:101750000100F4E740F004003060F7E7FFF776FDA2
:101760000099411A41F28830814266D8306880077A
:10177000F4D50EE0FFF76AFD009007E0FFF766FD85
:101780000099411A41F28830814256D8306880076A
:10179000F4D42FB1DBF8001021F08051CBF8001009
:1017A000A069C8B33D49091D0968C1F38101022937
:1017B0004AD00228504607D0C8F8600000E03CE05C
:1017C000FFF744FD04463BE04746C8F86000FFF7DA
:1017D0003DFD064605E000BFFFF738FD801B0228EF
:1017E0002BD828688001F7D4D4E907010843A16AFF
:1017F0002E4A490802EB0141626A41EA821108431C
:1018000094F82C1040EA0161C9F8001001203866F4
:10181000FFF71CFD044606E03EE000BFFFF716FDA3
:10182000001B022809D828688001F7D534E000BFE2
:10183000FFF70CFD001B022802D90320BDE8F88F3A
:1018400028688001F4D427E00128F7D0D9F80000F7
:10185000E26900F4800191421CD1226A00F03F014C
:10186000914217D147F6C071626A0140B1EB821F05
:1018700010D1A26A4FF0FF3300F4403103EB520263
:10188000B1EB024F06D194F82C1000F07060B0EB71
:10189000016F01D00120D1E70020CFE704380240DA
:1018A00000004742800E4742007000400000FFFFEA
:1018B0004FF0E0210428086903D020F004000861FB
:1018C000704740F00400FAE710B5401EB0F1807F89
:1018D00001D3012010BD4FF0E02460610F2160179B
:1018E00000F067FA0020A06107202061002010BDF1
:1018F00070B5040004D094F83D00002510B106E056
:10190000012070BD84F83C50204600F023F82420CC
:1019100084F83D002068C16821F40051C160204670
:1019200000F084F92068016921F490410161206888
:10193000416921F02A0141612068C16841F40051E8
:10194000C1602564202084F83D0084F83E0000201A
:1019500070BD000010B586B0044614216846FEF73D
:10196000F6FD14492068884221D1134800210268FD
:1019700042F010020260006800F0100005900E486E
:101980001438026842F001020260006800F00100B1
:1019900005904FF4C06000900220CDE901010320C2
:1019A00003900720049069460448FFF755FB06B0F2
:1019B00010BD000000100140443802400000024009
:1019C0002DE9F843044690F83D001F4616460D46A3
:1019D00020284CD1C5B1BEB194F83C00012846D0B6
:1019E000012084F83C004FF00008C4F8408021201A
:1019F00084F83D00FFF72AFCA6848146E684A068AF
:101A0000B0F5805F03D004E00120BDE8F8832069D1
:101A100028B12E465FF0000584F83C800EE00026D9
:101A2000FAE78021204600F087F9A0B9AEB116F898
:101A3000010B21684860E08C401EE084E08C4B463E
:101A40004FF0000200970028EBD14FF040012046F4
:101A500000F072F930B10320D7E735F8020BC0F37C
:101A60000800E6E7202084F83D000020CDE70220B2
:101A7000CBE7FEE770B586B014216846FEF767FD38
:101A800015480024016841F080010160016801F0FF
:101A900080010591016841F00101016000680F4E6D
:101AA00000F0010005900122E0213046FFF7C9FB5C
:101AB000102001258DE8310069463046FFF7CCFA49
:101AC000E020CDE900050220CDE90240694630461C
:101AD000FFF7C2FA06B070BD303802400000024085
:101AE0000C4810B50A4901604FF4E1314160002112
:101AF00081600C22C160C0E904128161C161FFF7FD
:101B0000F7FE002803D0BDE81040FFF7A3BA10BDD0
:101B10000010014030000020FEE7FEE72DE9F04113
:101B20000025174E07460124002280213046FFF78A
:101B300088FB3C4201D0012200E0002220213046F7
:101B4000FFF77FFB1020FFF709FA01222021304622
:101B5000FFF777FB10213046FFF76EFB00B12543FE
:101B60001020FFF7FBF9600010F0FF04DCD1012228
:101B700020213046FFF765FB2846BDE8F0810000D4
:101B80000000024070477047FFF766BB30B593B066
:101B900030216846FEF7DBFC14210CA8FEF7D7FCC9
:101BA0001C480025016841F080510160006800F088
:101BB000805011901848016841F44041016000686C
:101BC000022400F440401190012000900004019094
:101BD0008001CDE9064008AA0420642182E81300B0
:101BE0000B906846FFF7AEFC08B172B6FEE70CA991
:101BF0000F2081E831004FF48050CDE90F0503211B
:101C00000CA8FFF7B5FB002801D072B6FEE713B0B1
:101C100030BD0000403802400070004002480168BA
:101C200041F470010160704788ED00E070B5044632
:101C300000680169E26821F44051114301612169A2
:101C4000A068E26908436169114308432168CA68D2
:101C500049F20C639A430243CA6020684169A26951
:101C600021F440711143416131492068884202D01A
:101C70003049884202D1FFF725FC01E0FFF712FC52
:101C8000E2690023192164253226B2F5004F62680B
:101C900028D0A0FB0101930F9200FEF7F9FA01464C
:101CA000B0FBF5F06FF01802504301EB800006EB3B
:101CB0000010B0FBF5F000F0F002B1FBF5F002EB24
:101CC0000012B1FBF5F06FF01803584301EB8000F0
:101CD00006EB0010B0FBF5F000F00F002168104497
:101CE000886070BDA0FB010192185B41FEF7D0FA3D
:101CF0000146B0FBF5F00201B1FBF5F06FF01803FF
:101D0000584301EB800006EBC000B0FBF5F000F09B
:101D1000F80002EB4002B1FBF5F0584301EB800004
:101D200006EBC000B0FBF5F000F00700D6E70000BE
:101D300000100140001401402DE9F041984617467B
:101D40000E460446069D27E0681C25D02DB1FFF7FE
:101D50007DFAA0EB0800A8421ED920680C3050E89C
:101D6000001F21F4D07140E80012002AF5D120684C
:101D7000143050E8001F21F0010140E80012002A51
:101D8000F5D1202084F83D0084F83E00002084F83E
:101D90003C000320BDE8F0812068006836EA0000BE
:101DA00004D00020B842CFD00020F3E70120F9E7AB
:101DB000FEE70907090E002804DB00F1E02080F8A7
:101DC0000014704700F00F0000F1E02080F8141DAF
:101DD000704730380A2801D2012070470020704730
:101DE00013B54FF6FF73012269460248FFF7E8FD7D
:101DF00000981CBD300000201FB5FFF735FAFFF733
:101E0000C5FEFFF737FEFFF76BFEFFF78BF8FFF716
:101E1000BBF80BA0FEF7B4FA124C1248FFF7CAF851
:101E2000E078A379627921798DE80F00A378627850
:101E300021780D48FEF7A4FA1E20FFF776F8ECE7AC
:101E40000D0A2020505332E697A0E7BABFE6898BEF
:101E5000E69F8448414CE5BA93E4BE8BE7A88B200B
:101E6000200D0A0000000020CC1E00084FF040703A
:101E7000E1EE100A7047014200000000000000007F
:101E8000000000000000000102030406070809002A
:101E90000000000102030430313233343536373864
:101EA00039414243444546403058003031323334A2
:101EB0003536373839616263646566403078003A98
:101EC0007474003A7474003A747400004D4F4445C1
:101ED0003A2532782042544E313A25327820425405
:101EE0004E323A25327820524A4F595F4C523A25A9
:101EF000327820524A4F595F55443A253278204C67
:101F00004A4F595F4C523A253278204C4A4F595F1C
:101F100055443A2532780D0A000000003C1F0008A5
:101F20000000002024000000D4010008601F000809
:101F300024000020AC070000F001000800000000B1
:101F40000000000001000000100000000000000080
:101F50000024F40000000000000000000000000069
:040000050800019955
:00000001FF
